:100000000C9464000C948C000C948C000C9465028D
:100010000C9465020C9465020C948C000C948C007A
:100020000C948C000C948C000C948C000C948C0020
:100030000C948C000C948C000C948C000C948C0010
:100040000C9454050C948C000C94F6030C94280426
:100050000C948C000C948C000C948C000C948C00F0
:100060000C948C000C948C0000000008000201002D
:100070000003040700000000000000000102040863
:100080001020408001020408102001020408102002
:10009000040404040404040402020202020203032E
:1000A00003030303000000002300260029000000D2
:1000B0000000250028002B0000000000240027007D
:1000C0002A00CC005804E00011241FBECFEFD8E076
:1000D000DEBFCDBF11E0A0E0B1E0E8E3F0E102C097
:1000E00005900D92AA34B107D9F722E0AAE4B1E055
:1000F00001C01D92A838B207E1F710E0C6ECD0E0CD
:1001000004C02297FE010E940B08C23CD107C9F728
:100110000E9445050C940F080C94000008958BE490
:1001200091E00E942701892B69F08BE491E00E9405
:100130002D0180934A014AE050E0682F82EE91E061
:100140000E942D058BE991E00E944B0188E991E026
:100150000E944B0168E873E180E090E00E94C105D5
:100160008BE991E00E94580188E991E00E945801D2
:1001700068E873E180E090E00E94C1058BE991E0BE
:100180000E94650188E991E00E94650168E873E1D9
:1001900080E090E00C94C10528E047E066E08BE940
:1001A00091E00E9433012BE04AE069E088E991E0A8
:1001B0000E9433014EE16FE18BE491E00C94030166
:1001C0008AE091E090934C0180934B0189E791E0A4
:1001D0000C94DF028E960C9468036115710581F012
:1001E000DB010D900020E9F7AD0141505109461B9C
:1001F000570BDC01ED91FC910280F381E02D099415
:1002000080E090E008950F931F93CF93DF93EC016C
:100210001B821A8208EE13E020E030E00C831D837D
:100220002E833F838AE091E09983888320E0CE018A
:100230008E960E94380380E290E09D878C87DF9144
:10024000CF911F910F9108958E960C9417028E9660
:100250000C94FF018E960C94E5018E960C9472011D
:100260008E960C949301CF93DF93EC01862F6883D5
:1002700049832A8361E00E944D0661E089810E94E2
:100280004D0661E08A810E944D0661E08881DF9120
:10029000CF910C948606CF93DF93EC0161E08981C6
:1002A0000E94860660E08A81DF91CF910C948606D9
:1002B000CF93DF93EC0160E089810E94860660E0C5
:1002C0008A81DF91CF910C948606CF93DF93EC0166
:1002D00060E089810E94860661E08A81DF91CF918A
:1002E0000C9486062091E0013091E101281739072E
:1002F000B9F490919E0180919F01981789F0E09147
:100300009E01F0E0E056FE4F808120919E0130E09A
:100310002F5F3F4F2F73332720939E0190E0089566
:100320008FEF9FEF08951F93CF93DF93DC015C96CF
:100330008D919C915D97009749F481E090E0139630
:100340009C938E93129780E090E03BC05196ED9184
:10035000FC91529750962C915097322F30951FB7A1
:100360005E964C915E9741FB772770F941FD609551
:10037000F8944081772311F0422B01C0432340833E
:10038000EC012197F1F748E0508160FF02C0522B49
:1003900001C053235083EC012197F1F7669541503A
:1003A00099F78081772311F0832301C0822B80830A
:1003B0001FBF5C968D919C915D970197F1F781E04D
:1003C00090E0DF91CF911F9108952091E00130914D
:1003D000E1012817390781F490919E0180919F01D6
:1003E000981751F0E0919E01F0E0E056FE4F8081B9
:1003F000992787FD909508958FEF9FEF089520919D
:10040000E0013091E1012817390771F480919F01D3
:1004100020919E0190E0805C9F4F821B910960E4D7
:1004200070E00E94A007089580E090E00895209178
:10043000E0013091E1012817390739F48FB7F894BA
:1004400010929F0110929E018FBF0895E091E001EC
:10045000F091E101E817F90769F4A389B4899C9147
:100460008589809589238C931092E1011092E00197
:1004700081E0089580E00895CF93DF93EC018A8DA9
:100480009B8D892BF1F08091E0019091E1018C1717
:100490009D07B9F0009711F00E9426028E8D8E7F85
:1004A0008E8F10929F0110929E01D093E101C09314
:1004B000E001EB89FC8980819D89892B808381E023
:1004C00001C080E0DF91CF9108951F920F920FB687
:1004D0000F9211242F933F934F935F936F937F93CA
:1004E0008F939F93AF93BF93EF93FF93E091E001BE
:1004F000F091E101309709F451C0868DA685B7854A
:10050000958581FF04C08C91892329F447C08C9183
:10051000892309F043C0A389B4899C91858980957A
:1005200089238C93868997890197F1F7208D318DE6
:10053000A685B785758558E040E0C9010197F1F7B8
:10054000842F90E095958795482F6C91672309F04B
:100550004068515091F7868D81FD409580919F01B3
:1005600090E001968F73992720919E01281749F0FA
:10057000A0919F01B0E0A056BE4F4C9380939F0185
:1005800003C0868D8160868F828D938D0197F1F7F0
:10059000A389B4898C919589892B8C93FF91EF91D4
:1005A000BF91AF919F918F917F916F915F914F918B
:1005B0003F912F910F900FBE0F901F9018952CE137
:1005C00031E0FC01318320830C9426021F93CF93EA
:1005D000DF93EC01162F6E8D6695617081E06827C0
:1005E000812F0E94860661E0812F0E944D06812F97
:1005F00090E0FC01E458FF4FE491E88BFC01E057E8
:10060000FF4FE491F0E0EE0FFF1FE255FF4F8591A1
:1006100094919A8B898BDF91CF911F9108951F93AD
:10062000CF93DF93EC01162F60E0812F0E944D06DF
:100630008E8D81FD04C061E0812F0E9486061C879B
:10064000812F90E0FC01E458FF4FE491ED87FC011D
:10065000E057FF4FE491F0E0EE0FFF1FEC55FF4F26
:10066000859194919F878E87DF91CF911F910895F7
:10067000FF920F931F93CF93DF93EC01F62E522F2F
:100680001B821A8208EE13E020E030E00C831D8309
:100690002E833F838CE191E0998388831F8A1E8A91
:1006A000198E188E1B8E1A8E1D8E1C8E8E8D8E7F2F
:1006B00050FB81F98E8F642FCE010E94E6026F2DD0
:1006C000CE01DF91CF911F910F91FF900C940F03FA
:1006D000CF93DF93EC019A01AB011B8E1A8E198E1A
:1006E000188E1F8A1E8A60E079E08DE390E00E94F8
:1006F000D607C9012430310520F0B90163507109D2
:1007000002C061E070E07D8F6C8FEC85E63108F00F
:1007100068C0B901769567956431710518F0635129
:10072000710902C061E070E07F8B6E8B069718F054
:10073000C901059702C081E090E0998F888FC901B7
:10074000880F991F820F931F969587959695879589
:100750008D30910510F00C9702C081E090E09B8FE6
:100760008A8F20916800E83050F091E0EE3008F474
:1007700090E081E001C0880F9A95EAF701C084E01B
:10078000822B809368002C85283038F02E3040F082
:10079000263148F48CE690E008C08DE690E005C074
:1007A0008BE690E002C080E090E09C8B8B8B283041
:1007B00030F481E001C0880F2A95EAF70DC0822F3E
:1007C00090E02E3010F4089701C00E9791E001C020
:1007D000990F8A95EAF7892F8D8B8C8D9D8D0197C6
:1007E000F1F7CE01DF91CF910C943C021F920F9252
:1007F0000FB60F9211242F938F939F93EF93FF9334
:10080000E091F201F091F3018081E091F801F09123
:10081000F90182FD12C090818091FB018F5F8F737F
:100820002091FC01821751F0E091FB01F0E0EE51C4
:10083000FE4F958F8093FB0101C08081FF91EF9166
:100840009F918F912F910F900FBE0F901F90189531
:100850001F920F920FB60F9211242F933F934F9335
:100860005F936F937F938F939F93AF93BF93EF9318
:10087000FF9382EE91E00E94F706FF91EF91BF9106
:10088000AF919F918F917F916F915F914F913F9128
:100890002F910F900FBE0F901F90189582EE91E050
:1008A0000E94BC0621E0892B09F420E0822F0895E4
:1008B0001092E5011092E40188EE93E0A0E0B0E030
:1008C0008093E6019093E701A093E801B093E901DA
:1008D0008DE391E09093E3018093E20185EC90E059
:1008E0009093EF018093EE0184EC90E09093F101FE
:1008F0008093F00180EC90E09093F3018093F201FB
:1009000081EC90E09093F5018093F40182EC90E00B
:100910009093F7018093F60186EC90E09093F901B3
:100920008093F8011092FB011092FC011092FD01DE
:100930001092FE010895CF92DF92EF92FF920F93F3
:100940001F93CF93DF936C017A01EB01E60EF71E44
:1009500000E010E0CE15DF0561F06991D601ED9160
:10096000FC910190F081E02DC6010995080F191F37
:10097000F1CFC801DF91CF911F910F91FF90EF90C0
:10098000DF90CF90089568E271E00C94ED008F92B3
:100990009F92AF92BF92CF92DF92EF92FF920F930E
:1009A0001F93CF93DF93CDB7DEB7A1970FB6F8941F
:1009B000DEBF0FBECDBF7C01C42EE52FCB01D22EF2
:1009C00019A221E02D1510F02AE0D22E8E010F5D24
:1009D0001F4F8D2C912CA12CB12C6C2D7E2FA5019D
:1009E00094010E94B4078C2DD29E801911240150CD
:1009F00011098A3014F4805D01C0895CF80180839C
:100A0000211531054105510521F0C22EE32FCA0100
:100A1000E4CFB801C7010E94ED00A1960FB6F8948B
:100A2000DEBF0FBECDBFDF91CF911F910F91FF9021
:100A3000EF90DF90CF90BF90AF909F908F900895F0
:100A40002115310541F4DC01ED91FC910190F0811B
:100A5000E02D642F09940C94C7040F931F93CF9338
:100A6000DF93EC019A01462F50E060E070E00E94B5
:100A700020058C01CE010E94C304800F911FDF91DD
:100A8000CF911F910F91089508950E94E9050E944A
:100A900044050E948E00C9EED6E00E948F00209788
:100AA000E1F30E94E906F9CF1F920F920FB60F9261
:100AB00011242F933F938F939F93AF93BF93809174
:100AC000800290918102A0918202B09183023091C4
:100AD0007F0223E0230F2D3720F40196A11DB11DC5
:100AE00005C026E8230F0296A11DB11D20937F02A9
:100AF0008093800290938102A0938202B09383023C
:100B00008091840290918502A0918602B091870223
:100B10000196A11DB11D8093840290938502A0933C
:100B20008602B0938702BF91AF919F918F913F91C1
:100B30002F910F900FBE0F901F9018953FB7F8940C
:100B40008091840290918502A0918602B0918702E3
:100B500026B5A89B05C02F3F19F00196A11DB11D18
:100B60003FBF6627782F892F9A2F620F711D811D35
:100B7000911D42E0660F771F881F991F4A95D1F794
:100B80000895CF92DF92EF92FF92CF93DF936B01A4
:100B90007C010E949E05EB01C114D104E104F10423
:100BA00089F00E949F070E949E056C1B7D0B683E8A
:100BB000734090F381E0C81AD108E108F108C851E8
:100BC000DC4FEACFDF91CF91FF90EF90DF90CF9095
:100BD0000895789484B5826084BD84B5816084BDB5
:100BE00085B5826085BD85B5816085BDEEE6F0E0A6
:100BF000808181608083E1E8F0E010828081826002
:100C00008083808181608083E0E8F0E08081816082
:100C10008083E1EBF0E0808184608083E0EBF0E0B2
:100C2000808181608083EAE7F0E080818460808356
:100C30008081826080838081816080838081806800
:100C400080831092C1000895833081F028F48130B0
:100C500099F08230A1F008958730A9F08830B9F07A
:100C60008430D1F4809180008F7D03C0809180001A
:100C70008F7780938000089584B58F7702C084B504
:100C80008F7D84BD08958091B0008F7703C08091DF
:100C9000B0008F7D8093B0000895CF93DF9390E0F4
:100CA000FC01E458FF4F2491FC01E057FF4F849171
:100CB000882349F190E0880F991FFC01E854FF4F09
:100CC000A591B49182559F4FFC01C591D4919FB7D6
:100CD000611108C0F8948C91209582238C938881AF
:100CE00082230AC0623051F4F8948C91322F3095EF
:100CF00083238C938881822B888304C0F8948C9101
:100D0000822B8C939FBFDF91CF9108950F931F93F8
:100D1000CF93DF931F92CDB7DEB7282F30E0F901D4
:100D2000E859FF4F8491F901E458FF4F1491F901FC
:100D3000E057FF4F04910023C9F0882321F0698315
:100D40000E9424066981E02FF0E0EE0FFF1FE255BC
:100D5000FF4FA591B4919FB7F8948C91611103C096
:100D60001095812301C0812B8C939FBF0F90DF9141
:100D7000CF911F910F910895FC01818D228D90E0FC
:100D8000805C9F4F821B91098F7399270895FC0106
:100D9000918D828D981731F0828DE80FF11D858D30
:100DA00090E008958FEF9FEF0895FC01918D828D63
:100DB000981761F0828DDF01A80FB11D5D968C91AF
:100DC000928D9F5F9F73928F90E008958FEF9FEFBA
:100DD00008958EE494E0892B49F080E090E0892B1F
:100DE00029F00E944E0481110C9400000895FC012A
:100DF000848DDF01A80FB11DA35ABF4F2C91848DA4
:100E000090E001968F739927848FA689B7892C93D8
:100E1000A089B1898C9180648C93938D848D981373
:100E200006C00288F389E02D80818F7D808308953C
:100E3000CF93DF93EC01888D8823C9F0EA89FB8981
:100E4000808185FD05C0A889B9898C9186FD0FC078
:100E50000FB607FCF5CF808185FFF2CFA889B9894D
:100E60008C9185FFEDCFCE010E94F706E7CFDF9191
:100E7000CF910895CF92DF92FF920F931F93CF935C
:100E8000DF931F92CDB7DEB76C0181E0D601589693
:100E90008C9358975B969C915B975C968C915C9732
:100EA000981307C05096ED91FC915197808185FD74
:100EB0002EC0F601038D10E00F5F1F4F0F73112737
:100EC000F02EF601848DF81211C00FB607FCF9CF91
:100ED000D6015096ED91FC915197808185FFF1CF1D
:100EE000C60169830E94F7066981EBCF838DE80F05
:100EF000F11DE35AFF4F6083D6015B960C935B971D
:100F00005296ED91FC915397808180620CC0D6017E
:100F10005696ED91FC91579760835096ED91FC9118
:100F2000519780818064808381E090E00F90DF9111
:100F3000CF911F910F91FF90DF90CF90089508956A
:100F400097FB072E16F4009407D077FD09D00E9476
:100F5000F50707FC05D03EF4909581959F4F0895C5
:100F6000709561957F4F0895A1E21A2EAA1BBB1BB5
:100F7000FD010DC0AA1FBB1FEE1FFF1FA217B30765
:100F8000E407F50720F0A21BB30BE40BF50B661F7B
:100F9000771F881F991F1A9469F76095709580953F
:100FA00090959B01AC01BD01CF010895052E97FBE3
:100FB0001EF400940E94ED0757FD07D00E94B4076D
:100FC00007FC03D04EF40C94ED07509540953095F6
:100FD00021953F4F4F4F5F4F0895909580957095A5
:100FE00061957F4F8F4F9F4F0895AA1BBB1B51E107
:100FF00007C0AA1FBB1FA617B70710F0A61BB70B89
:10100000881F991F5A95A9F780959095BC01CD012D
:101010000895EE0FFF1F0590F491E02D099410E064
:10102000C6ECD0E004C0FE010E940B082296C83C2A
:08103000D107C9F7F894FFCFC6
:101038000000880280000000000030019B042701A6
:101048002D012A012401EA000000000093019B04FD
:10105800FF017201E50117020D0A006E616E006959
:101068006E66006F7666002E00000000003A079B4F
:0A10780004BC06D506C706180700E1
:00000001FF
