:100000000C945E000C9486000C9486000C94B20054
:100010000C94B2000C94B2000C9486000C948600F0
:100020000C9486000C9486000C9486000C94860038
:100030000C9486000C9486000C9486000C94860028
:100040000C94EC020C9486000C940F020C94410268
:100050000C9486000C9486000C9486000C94860008
:100060000C9486000C948600000000080002010039
:100070000003040700000000000000000102040863
:100080001020408001020408102001020408102002
:10009000040404040404040402020202020203032E
:1000A0000303030300000000250028002B000000CC
:1000B0000000240027002A009D00710211241FBEA9
:1000C000CFEFD8E0DEBFCDBF11E0A0E0B1E0EAEBBA
:1000D000F8E002C005900D92A631B107D9F722E0F1
:1000E000A6E1B1E001C01D92A130B207E1F710E036
:1000F000CCEBD0E004C02297FE010E945704C83B1D
:10010000D107C9F70E94DD020C945B040C94000037
:10011000089586E191E00E94A80068E873E180E01C
:1001200090E00E94590386E191E00E94AD0068E8EA
:1001300073E180E090E00C9459036DE086E191E07A
:100140000C94A200FC01862F608361E00C94E5030F
:1001500061E0FC0180810C941E0460E0FC01808160
:100160000C941E041F920F920FB60F9211242F931E
:100170003F934F935F936F937F938F939F93AF932F
:10018000BF93EF93FF93E0915901F0915A0130979B
:1001900009F451C0868DA685B785958581FF04C079
:1001A0008C91892329F447C08C91892309F043C09D
:1001B000A389B4899C918589809589238C938689AC
:1001C00097890197F1F7208D318DA685B7857585C3
:1001D00058E040E0C9010197F1F7842F90E0959530
:1001E0008795482F6C91672309F04068515091F72B
:1001F000868D81FD40958091180190E001968F7366
:10020000992720911701281749F0A0911801B0E013
:10021000A75EBE4F4C938093180103C0868D81600A
:10022000868F828D938D0197F1F7A389B4898C9184
:100230009589892B8C93FF91EF91BF91AF919F91FD
:100240008F917F916F915F914F913F912F910F907F
:100250000FBE0F901F901895FC01818D228D90E0AC
:10026000805C9F4F821B91098F7399270895FC0131
:10027000918D828D981731F0828DE80FF11D858D5B
:1002800090E008958FEF9FEF0895FC01918D828D8E
:10029000981761F0828DDF01A80FB11D5D968C91DA
:1002A000928D9F5F9F73928F90E008958FEF9FEFE5
:1002B000089587E692E0892B49F080E090E0892B51
:1002C00029F00E94670281110C9400000895FC013E
:1002D000848DDF01A80FB11DA35ABF4F2C91848DCF
:1002E00090E001968F739927848FA689B7892C9304
:1002F000A089B1898C9180648C93938D848D98139F
:1003000006C00288F389E02D80818F7D8083089567
:10031000CF93DF93EC01888D8823C9F0EA89FB89AC
:10032000808185FD05C0A889B9898C9186FD0FC0A3
:100330000FB607FCF5CF808185FFF2CFA889B98978
:100340008C9185FFEDCFCE010E946701E7CFDF9151
:10035000CF910895CF92DF92FF920F931F93CF9387
:10036000DF931F92CDB7DEB76C0181E0D6015896BE
:100370008C9358975B969C915B975C968C915C975D
:10038000981307C05096ED91FC915197808185FD9F
:100390002EC0F601038D10E00F5F1F4F0F73112762
:1003A000F02EF601848DF81211C00FB607FCF9CFBC
:1003B000D6015096ED91FC915197808185FFF1CF48
:1003C000C60169830E9467016981EBCF838DE80FC5
:1003D000F11DE35AFF4F6083D6015B960C935B9748
:1003E0005296ED91FC915397808180620CC0D601AA
:1003F0005696ED91FC91579760835096ED91FC9144
:10040000519780818064808381E090E00F90DF913C
:10041000CF911F910F91FF90DF90CF9008951F9281
:100420000F920FB60F9211242F938F939F93EF93F8
:10043000FF93E0916B01F0916C018081E09171017B
:10044000F091720182FD12C09081809174018F5FE2
:100450008F7320917501821751F0E0917401F0E0E3
:10046000E55AFE4F958F8093740101C08081FF9102
:10047000EF919F918F912F910F900FBE0F901F9032
:1004800018951F920F920FB60F9211242F933F933E
:100490004F935F936F937F938F939F93AF93BF938C
:1004A000EF93FF938BE591E00E946701FF91EF913D
:1004B000BF91AF919F918F917F916F915F914F917C
:1004C0003F912F910F900FBE0F901F9018958BE5C5
:1004D00091E00E942C0121E0892B09F420E0822F79
:1004E000089510925E0110925D0188EE93E0A0E005
:1004F000B0E080935F0190936001A0936101B0939D
:1005000062018AE091E090935C0180935B0185EC4D
:1005100090E0909368018093670184EC90E0909361
:100520006A018093690180EC90E090936C01809364
:100530006B0181EC90E090936E0180936D0182ECF1
:1005400090E09093700180936F0186EC90E090931F
:1005500072018093710110927401109275011092D2
:100560007601109277010895CF92DF92EF92FF9279
:100570000F931F93CF93DF936C017A01EB01E60E8B
:10058000F71E00E010E0CE15DF0561F06991D6019D
:10059000ED91FC910190F081E02DC6010995080FC5
:1005A000191FF1CFC801DF91CF911F910F91FF90DB
:1005B000EF90DF90CF90089508950E9481030E94EC
:1005C000DC020E948800C9E5D1E00E9489002097E2
:1005D000E1F30E945901F9CF1F920F920FB60F92CB
:1005E00011242F933F938F939F93AF93BF93809149
:1005F000F9019091FA01A091FB01B091FC013091B9
:10060000F80123E0230F2D3720F40196A11DB11D21
:1006100005C026E8230F0296A11DB11D2093F80105
:100620008093F9019093FA01A093FB01B093FC0130
:100630008091FD019091FE01A091FF01B091000217
:100640000196A11DB11D8093FD019093FE01A09321
:10065000FF01B0930002BF91AF919F918F913F91A5
:100660002F910F900FBE0F901F9018953FB7F894E1
:100670008091FD019091FE01A091FF01B0910002D7
:1006800026B5A89B05C02F3F19F00196A11DB11DED
:100690003FBF6627782F892F9A2F620F711D811D0A
:1006A000911D42E0660F771F881F991F4A95D1F769
:1006B0000895CF92DF92EF92FF92CF93DF936B0179
:1006C0007C010E943603EB01C114D104E104F10462
:1006D00089F00E9454040E9436036C1B7D0B683E17
:1006E000734090F381E0C81AD108E108F108C851BD
:1006F000DC4FEACFDF91CF91FF90EF90DF90CF906A
:100700000895789484B5826084BD84B5816084BD89
:1007100085B5826085BD85B5816085BDEEE6F0E07A
:10072000808181608083E1E8F0E0108280818260D6
:100730008083808181608083E0E8F0E08081816057
:100740008083E1EBF0E0808184608083E0EBF0E087
:10075000808181608083EAE7F0E08081846080832B
:1007600080818260808380818160808380818068D5
:1007700080831092C1000895833081F028F4813085
:1007800099F08230A1F008958730A9F08830B9F04F
:100790008430D1F4809180008F7D03C080918000EF
:1007A0008F7780938000089584B58F7702C084B5D9
:1007B0008F7D84BD08958091B0008F7703C08091B4
:1007C000B0008F7D8093B0000895CF93DF9390E0C9
:1007D000FC01E458FF4F2491FC01E057FF4F849146
:1007E000882349F190E0880F991FFC01E255FF4FE3
:1007F000A591B4918C559F4FFC01C591D4919FB7A1
:10080000611108C0F8948C91209582238C93888183
:1008100082230AC0623051F4F8948C91322F3095C3
:1008200083238C938881822B888304C0F8948C91D5
:10083000822B8C939FBFDF91CF9108950F931F93CD
:10084000CF93DF931F92CDB7DEB7282F30E0F901A9
:10085000E859FF4F8491F901E458FF4F1491F901D1
:10086000E057FF4F04910023C9F0882321F06983EA
:100870000E94BC036981E02FF0E0EE0FFF1FEC55F2
:10088000FF4FA591B4919FB7F8948C91611103C06B
:100890001095812301C0812B8C939FBF0F90DF9116
:1008A000CF911F910F9108950895EE0FFF1F0590AE
:0A08B000F491E02D0994F894FFCFB5
:1008BA0000000102800000000000AA01B4022C011D
:0608CA0045013701880121
:00000001FF
